:020000040800F2
:10000000A007002029020008172100088D1F000802
:1000100015210008E1050008C521000800000000C6
:100020000000000000000000000000001B2100088C
:10003000AD06000800000000192100081D2100087D
:10004000430200084302000843020008430200087C
:10005000430200084302000843020008430200086C
:10006000430200084302000843020008430200085C
:10007000430200084302000843020008430200084C
:100080004302000843020008AD04000843020008D0
:10009000E5050008F10500084302000843020008D6
:1000A000430200084302000843020008430200081C
:1000B000430200084302000843020008430200080C
:1000C00043020008430200084302000843020008FC
:1000D00043020008430200084302000843020008EC
:1000E00043020008430200084302000843020008DC
:1000F00043020008430200084302000843020008CC
:1001000043020008430200084302000843020008BB
:1001100043020008430200084302000843020008AB
:10012000FD050008430200084302000843020008DE
:10013000430200084302000843020008430200088B
:10014000430200084302000843020008430200087B
:10015000430200084302000843020008430200086B
:10016000430200084302000843020008430200085B
:100170004302000843020008430200080000000098
:10018000430200084302000800F002F800F03CF8C7
:100190000AA090E8000C82448344AAF10107DA45E2
:1001A00001D100F031F8AFF2090EBAE80F0013F0F8
:1001B000010F18BFFB1A43F0010318476C21000020
:1001C0008C210000103A24BF78C878C1FAD85207B1
:1001D00024BF30C830C144BF04680C6070470000C1
:1001E0000023002400250026103A28BF78C1FBD840
:1001F000520728BF30C148BF0B6070471FB502F0DF
:1002000081F81FBD10B510BD00F0CFF81146FFF703
:10021000F5FF02F007F800F0EDF803B4FFF7F2FF86
:1002200003BC00F0F5F80000094880470948004782
:10023000FEE7FEE7FEE7FEE7FEE7FEE7FEE7FEE796
:10024000FEE7FEE704480549054A064B70470000F3
:10025000B521000889010008A0010020A0070020A6
:10026000A0030020A003002053EA020C00F06980E4
:100270002DE9F04B4FF00006002B1FBFB3FA83F5BA
:1002800003FA05F424FA05F65E4012BF1643B2FAEB
:1002900082F502FA05F4C5F120051EBF22FA05FC1D
:1002A00044EA0C04203556EA044C4FEA144418BFC3
:1002B000641C4FF000084FF00009904271EB030CF2
:1002C00039D3002919BFB1FA81F701FA07F6B0FA5C
:1002D00080F700FA07F6C7F120071EBF20FA07FCD7
:1002E00046EA0C062037B6FBF4FCA7EB0507103FE7
:1002F00007F01F0BCBF120060CFA0BFB2CFA06F6CD
:1003000044BFB3460026202FA4BF5E464FF0000B2B
:100310005BEA060C08BF4FF0010B19EB0B09ABFBB6
:10032000027C48EB0608C01B06FB02CC0BFB03CC8F
:1003300071EB0C01C1E70B46024641464846BDE859
:10034000F08B13B54FF000004FF00001AFF30080C9
:10035000BDE81C4070474FF0000200B513469446BC
:100360009646203922BFA0E80C50A0E80C50B1F10D
:100370002001BFF4F7AF090728BFA0E80C5048BF21
:100380000CC05DF804EB890028BF40F8042B08BFBF
:10039000704748BF20F8022B11F0804F18BF00F8BB
:1003A000012B7047704770477047754600F02CF876
:1003B000AE4605006946534620F00700854618B052
:1003C00020B5FFF73FFFBDE820404FF000064FF09B
:1003D00000074FF000084FF0000B21F00701AC467A
:1003E000ACE8C009ACE8C009ACE8C009ACE8C00999
:1003F0008D46704710B50446AFF300802046BDE837
:100400001040FFF70ABF000000487047400100207D
:1004100001491820ABBEFEE726000200704710B568
:100420000146806B026C12F0500F05D0026CD206B0
:1004300026D500F0E7F910BD016C41F400710164AC
:1004400001688A6812F0405F17D1027EAAB9CA6AB1
:1004500012F4700F02D08A6852050ED44A6822F056
:1004600020024A60016C21F480710164016CC904AE
:1004700003D4016C41F00101016400F0C1F910BD29
:10048000806BC26CBDE810400846104710B5806B09
:1004900040210164416C41F00401416400F0B2F973
:1004A00010BD10B5806B00F0ACF910BD014800F034
:1004B000AAB9000028000020464910B54A6822F475
:1004C00040324A604A6843681A434A6001684A6891
:1004D00022F480724A6001684A68036942EA032292
:1004E0004A6001684A6822F040724A6001684A68BE
:1004F00083681A434A6001688A6822F400628A604D
:1005000001688A68C3681A438A60816A6FF0706202
:10051000D14201688A6822F070628A6001688A6844
:100520000CD0836A1A438A6001688A6822F04052BC
:100530008A6001688A68C36A1A4301E022F0405267
:100540008A6001688A6822F002028A6001688A680B
:10055000037E42EA43028A6090F820100029016875
:100560004A680FD042F400624A6001684A6822F487
:1005700060424A6001684A68174C436A04EB43339F
:100580001A4301E022F400624A600168CA6A22F458
:100590007002CA620168CA6A838B104C04EB035371
:1005A0001A43CA6201688A6822F400728A6001688C
:1005B0008A6890F8303042EA43228A6001688A688B
:1005C00022F480628A6001688A68406942EA802079
:1005D000886010BD0023014000E0FFFF0000F0FF35
:1005E000FEE70000014800F040BC00007000002061
:1005F000014800F03ABC000070000020014800F003
:100600000FBF0000E000002001681823CAB2103AB2
:10061000B2FBF3F2054B6FF30901032A9B5CC36540
:1006200000D9091D81650846704700000E230008A7
:1006300010B5014600208B698A6A4FF0C07453B12F
:10064000B3F5005F15D072B1012A0CD0022A0AD08E
:10065000032A09D104E01AB1012A06D0022A03D1E3
:10066000C96AC90100D5012010BDC96AA142FAD0EA
:1006700010BD002AF7D0012AF2D0022AF3D0032AB3
:10068000F3D010BD30B50468256825F480252560B9
:10069000046863608368402B036803D09960006836
:1006A000C26030BD9A600068C16030BD704772B6EC
:1006B000FEE7704778B50024009490F83C20012AAA
:1006C00019D0012280F83C200A6807230568092A0E
:1006D00013D9EE680A3A02EB420293409E43EE6061
:1006E0000B788A680A3B03EB43039A400368DD6892
:1006F0002A43DA6010E0022078BD2E6902EB420244
:1007000093409E432E610B788A6803EB43039A4023
:1007100003681D692A431A614A681F23072A13D2F6
:1007200005686E6B521E02EB820293409E436E631D
:100730000B790A885B1E92B203EB83039A4003682D
:100740005D6B2A435A6327E005680D2A12D22E6B8F
:10075000D21F02EB820293409E432E630B790A88DC
:10076000DB1F92B203EB83039A4003681D6B2A439D
:100770001A6311E0EE6A0D3A02EB820293409E4347
:10078000EE620B790A880D3B92B203EB83039A4029
:100790000368DD6A2A43DA62164B0568144A9D42F3
:1007A00006D10D68122D03D1556845F480055560BA
:1007B00005689D4218D10B68102B01D0112B13D165
:1007C000536843F400035360096810290CD10A49A7
:1007D0000A4A0968B1FBF2F101EB8101490000E02E
:1007E000491E00910029FBD180F83C40002078BDD3
:1007F00000230140002001402400002040420F005F
:1008000070477047704770B50446006806684568D1
:1008100016F0020F05F020012AD049B3216CC90659
:1008200003D4216C41F400712164816811F0405FB0
:1008300017D1217EA9B9C16A11F4700F02D0816865
:1008400049050ED4416821F020014160206C20F45C
:1008500080702064206CC00403D4206C40F0010040
:1008600020642046FFF7CCFF21686FF0120008607B
:1008700016F0040F05F0800132D089B3206CC00659
:1008800003D4206C40F4005020642068816811F487
:10089000401F1ED1816B11F4401F02D081684905B1
:1008A00017D44168490514D4816811F0405F10D114
:1008B000217E71B9416821F080014160206C20F4F3
:1008C00080502064206CC00503D4206C40F00100EF
:1008D00020642046FFF7EDFE21686FF00C000860F1
:1008E00016F0010F05F040010FD071B120680068CB
:1008F000C0070AD0206C40F480302064204600F00D
:1009000043F821686FF00100086016F0200F05F031
:1009100080610ED000290CD0606C40F00200606451
:1009200020686FF0200505602046FFF76BFF206808
:10093000056070BD70B504004FF0000503D0206C59
:10094000002610B107E0012070BD204600F01EF81F
:10095000666484F83C60206CC00610D4206C20F4DF
:10096000885040F0020020642046FFF7A5FD666431
:10097000206C20F0020040F00100206400E001251E
:1009800084F83C60284670BD7047000070B586B0A2
:10099000064614216846FFF7DEFC2149306888428C
:1009A0003CD120480025016841F480710160006855
:1009B00000F4807005901B481438016841F0040170
:1009C00001600068694600F0040005900220009074
:1009D0000320CDE90105144800F0A6FE144C13488D
:1009E000C4E900050015A560C4E9035080006061FA
:1009F0008000A0618011C4E907052046656200F00F
:100A0000DFFD08B1FFF753FEB46300221146122048
:100A1000A66300F0F5FF122000F0E4FF06B070BD01
:100A200000200140443802400008024010640240A7
:100A3000E0000020F8B5044600200E46009094F82F
:100A40003C10012907D0012184F83C1021688B68F3
:100A5000DB0702D011E00220F8BD8B6843F00103F0
:100A60008B604049404B0968B1FBF3F101EB410158
:100A700000E0491E00910029FBD121688B68DB054D
:100A800003D58B6823F480738B6021688B68DB0748
:100A90005DD0236C40F20165AB4343F48073236463
:100AA0004968490505D5216C21F4005141F4805174
:100AB0002164216CC90404D5616C21F006016164D4
:100AC00000E0606484F83C00A16B2948274DC863AE
:100AD000A16B28480864A16B2748C86421686FF09F
:100AE000220008602068416841F080614160206810
:100AF000816841F4807181602168134632464C312F
:100B0000A06B00F0C7FD68681C49C006206806D0CD
:100B1000884224D1816811F0405F13D01FE08842E1
:100B2000F8D0174A904203D1D1F80423D206F1D06D
:100B3000144A904213D1D1F8041301F01F01102977
:100B4000E8D30CE0816841F08041816007E0206CCF
:100B500040F010002064606C40F0010060640020F0
:100B6000F8BD00002400002040420F000023014097
:100B70001F040008A30400088D04000800200140A1
:100B8000002101400022014090F82020012A07D0D6
:100B9000022A05D0416A41F4802141620120704758
:100BA000006842690A43426100207047F0B590F83E
:100BB00020500468A468012D05D0022D03D0416A9D
:100BC00041F4802153E014F0406F01D1E5004BD592
:100BD000C4F30164022C03D9416A41F4000146E0E8
:100BE0000125A5401D608D684FF4C0739DB1CE688E
:100BF00035434E6845EAC605066803EB0417F55110
:100C00004FF4C275076805EB04150E697E51097D26
:100C1000012905D009E00E88CD6845EA4655EBE785
:100C200001684E5946F480764E511179D2F805503C
:100C30004FF4C67641EA0525016806EB04168D518E
:100C40001178D2F801204FF4C47541EA02210268FC
:100C500005EB04155151006803EB0411425842F0B2
:100C6000010242500020F0BD416A41F4001141628E
:100C70000120F0BD10B590F82020012A07D0022AEB
:100C800005D0416A41F480214162012010BD3B48FA
:100C9000D0F8002242F00102C0F80022D0F8002271
:100CA00022F47C52C0F80022D0F800224B6A42EABB
:100CB0000322C0F800220A7D02F01F0301229A409D
:100CC000D0F81C329343C0F81C32CB69B3B9D0F8CA
:100CD0000C329343C0F80C328C894B6864F31F4389
:100CE0004C6900EBC404C4F840320C890B6864F30F
:100CF0001F434C6900EBC404C4F84432CB69012B98
:100D000016D1D0F80C321343C0F80C320C884B6863
:100D100064F31F434C6900EBC404C4F840320C89EF
:100D2000CB6864F31F434C6900EBC404C4F844323D
:100D30008B69002BD0F804320ED01343C0F8043274
:100D40000B69002BD0F8143208D01343C0F81432CA
:100D5000096A012904D008E09343EFE79343F5E7DC
:100D6000D0F81C121143C0F81C12D0F8001221F068
:100D70000101C0F80012002010BD00000064004016
:100D8000704730B590F82040012C05D0022C03D0DC
:100D9000416A41F480215DE00468002955D024694E
:100DA000A40754D04FF4D874056804EB01142D59EE
:100DB00015F00405956005682D594ED0ED08556075
:100DC00005682C5904F00204D4604FF4DA74056805
:100DD00004EB01142D5905F00F05156105682D5917
:100DE000C5F30725956105682C59240C54614FF40F
:100DF000DC72046802EB0112A4581C700468A45849
:100E0000240A5C700468A458240C9C700468A258DE
:100E1000120EDA704FF4DE72046802EB0112A4586D
:100E20001C710468A458240A5C710468A458240C3A
:100E30009C710468A258120EDA71006881B10169D0
:100E400041F020010161002030BDE468A8E7416A5B
:100E500041F400114162012030BD6D0D1560AFE716
:100E6000C16841F02001C160EDE72DE9F05F054662
:100E7000006800244669D0F804908768D0F80CB068
:100E8000D0F810A0D0F81880F10748D0F90714D096
:100E900001218160B80703D5284600F018FA0CE05C
:100EA000780702D54FF4006407E0380702D54FF405
:100EB000805402E0284600F009FAF80516D52968A2
:100EC0004FF480708860B80503D5284600F001FA19
:100ED0000CE0780502D544F4005407E0380502D54B
:100EE00044F4804402E0284600F0F2F9F80316D5F5
:100EF00029684FF480308860B80303D5284600F095
:100F0000EAF90CE0780302D544F4004407E0380322
:100F100002D544F4803402E0284600F0DBF93007C3
:100F200007D55FEACB6004D52968102044F400742B
:100F3000C86070074FF0080707D55FEA0B7004D54B
:100F40002868C760284600F061F9B00706D5286810
:100F5000C068800702D0284600F05AF9700607D50D
:100F60005FEACA6004D52968102044F480640861EF
:100F7000B00607D55FEA0A7004D5286807612846DD
:100F800000F074F9F00606D528680069800702D0E1
:100F9000284600F06CF9B00308D55FEAC96005D5B2
:100FA000296810204860284600F062F9F00307D550
:100FB0005FEA097004D528684760284600F08CF97C
:100FC000300446D55FEA497040D5F00504D55FEAA4
:100FD000C87001D044F00104B00504D55FEA887000
:100FE00001D544F00204700504D55FEA487001D5CC
:100FF00044F00404300529D518F0700F26D008F00D
:101000007000402815D006DC102809D020280AD00E
:10101000302816D10AE050280ED0602811D10EE0F9
:1010200044F008040DE044F010040AE044F0200409
:1010300007E044F0400404E044F0800401E044F49C
:1010400080742868816921F0700181612968042019
:101050004860002C05D0686A204368622846FFF784
:101060008FFEBDE8F09F70B5040003D094F8200017
:1010700010B104E0012070BD204600F081F8206826
:10108000016841F00101016000F04CFC05460526B5
:1010900004E000F047FC401B0A2811D82068406893
:1010A000C007F6D02068016821F00201016000F05D
:1010B00039FC05460BE000F035FC401B0A2806D938
:1010C000606A40F40030606284F82060D2E72068F3
:1010D00040688007EFD4207E0128206801683DD059
:1010E00021F080010160607E01282068016838D00D
:1010F00021F040010160A07E01282068016833D002
:1011000021F020010160E07E0128206801682ED0D6
:1011100041F010010160207F01282068016829D07A
:1011200021F008010160607F01282068016824D057
:1011300021F004010160D4E902010843D4E904125A
:10114000114308436168491E08432168C8610020B3
:101150006062012084F82000002070BD41F0800111
:10116000C0E741F04001C5E741F02001CAE721F0A6
:101170001001CFE741F00801D4E741F00401D9E7BD
:1011800010B586B0044614216846FFF7E4F81C4900
:101190002068884231D11B480021026842F0007269
:1011A0000260006800F00070059016481038026870
:1011B00042F002020260006800F0020005904FF465
:1011C000407000900220CDE9010103200390092026
:1011D000049069460C4800F0A7FA0022114614203A
:1011E00000F00EFC142000F0FDFB0022114615203B
:1011F00000F006FC152000F0F5FB06B010BD000065
:101200000064004040380240000402407047000083
:1012100010B5144B144A0021FFF7B3FD114901200A
:10122000083908600F480278C378303A02EB42046C
:10123000C4EBC21203EBC2024378642413FB04F331
:10124000807800EB800003EB40001318A3F5A05357
:10125000D03B4B6100220448BDE8104011462C38B9
:1012600000F0A2B808000020C400002070477047BA
:101270007047000070B5044690F82000012804D0A3
:10128000606A40F40020606218E0022084F82000C8
:101290002068016821F00101016000F043FB054670
:1012A0000EE000BF00F03EFB401B0A2808D9606A30
:1012B00040F400306062052084F82000012070BDF9
:1012C00020684068C007EDD1606270BD704770470C
:1012D0007047704770477047704770B54379012B6E
:1012E0001CD0012646710223037105682B6802F0A9
:1012F000100440F6FE72A2409343D1E900210A4354
:10130000A2401A432A6001680A68C023A3409A4396
:101310000A60067100214171084670BD022070BD4F
:1013200070B5040003D02079002510B105E001203C
:1013300070BD6571204600F007F80220207125611C
:1013400001202071002070BD10B586B00446142124
:101350006846FFF700F81149206888421CD1104800
:101360000021026842F000520260006800F0005064
:1013700005900B481038026842F0010202600068D4
:1013800000F001000590102000900320CDE901013C
:101390006946044800F0C8F906B010BD007400406A
:1013A000403802400000024018B50468009400680C
:1013B000104421B1143000900360002018BD0830A3
:1013C000F9E770B54279012A1ED001224271022349
:1013D00003710468266801F0100302FA03F52E4336
:1013E00026600029016811D00C6804F470153C24B3
:1013F0009C40A54203D14B6843F002034B6002714D
:1014000000214171084670BD022070BD0B68C3F316
:1014100083030F2BF3D14B6843F00103EEE7000089
:101420002DE9F84304464FF00009CDF800906348D9
:101430004FF41651A56D0068B0FBF1F72E6894F8D3
:101440005C10082000FA01F131420FD021680A68CF
:1014500052070BD50A6822F004020A6094F85C1067
:101460008840A860606D40F00100606594F85C10F1
:101470004FF0010808FA01F0304208D021684969AC
:10148000090604D5A860606D40F00200606594F81C
:101490005C1004208840304208D021680968890720
:1014A00004D5A860606D40F00400606594F85C109D
:1014B00010208840304218D021680968090714D5E7
:1014C000A86020680168490304D50068000308D5B6
:1014D000A16C07E00168C90503D4016821F0080187
:1014E0000160216C09B12046884794F85C102020E7
:1014F0008840304231D021680968C9062DD5A860DE
:1015000094F8350005282068016806D0490347D5BE
:10151000006800031DD4616C1CE021F0160101601D
:101520002068416921F080014161206C08B9A06CFC
:1015300020B12068016821F00801016094F85C1076
:101540003F208840A86084F8358084F83490216D6D
:101550001FE0E16B09B120468847606D00282BD061
:10156000606DC00714D0052084F83500206801683C
:1015700021F0010101600098401C0090B84203D89E
:1015800020680068C007F6D184F8358084F834906C
:10159000E16C002910D001B02046BDE8F0430847B7
:1015A0000168C905D5D4016821F01001016084F8F3
:1015B000358084F83490CCE7BDE8F883240000201F
:1015C0002DE9F041044600F0ADF906465CB1022079
:1015D00084F83500002584F834502068016821F033
:1015E000010101600DE00120BDE8F08100F09AF9F1
:1015F000801B052805D920206065032084F835006C
:10160000F2E720680068C007F0D12268116820481E
:101610000140D4E901031843D4E9033633431843A6
:1016200063691843A3691843E3691843236A18439D
:101630000843616A042903D1D4E90B131943084311
:10164000106020684069666A20F0070130460E434A
:10165000012704280CD1A06A0643E06A40B1204665
:10166000FEF7E6FF20B14020606584F83570BAE7E8
:10167000206846612046FEF7C7FF94F85C203F21B2
:1016800091408160656584F835700020ACE700000A
:101690003F8010F02DE9F0410446866D90F834004B
:1016A000002501280DD0012084F8340094F835700D
:1016B0000020012F07D084F8340002252846BDE819
:1016C000F0810220FBE7022784F835706065204630
:1016D000FEF7D8FF94F85C103F208840B060206887
:1016E000016841F016010160206C20B1206801689A
:1016F00041F0080101602068016841F001010160CA
:10170000DCE7000070B5044600F00CF90546601CEB
:1017100002D004480078044400F004F9401BA042C1
:10172000FAD370BD180000202DE9F84FDFF8BCA1F6
:101730000022012503264FF00F090AF1040BAAF13C
:10174000040E00BF0B6805FA02F42340A34270D1D7
:101750000F7907F00307012F01D0022F16D18768F8
:101760004FEA420806FA08FC27EA0C07D1F80CC039
:101770000CFA08FC4CEA070CC0F808C04768A743FD
:101780000C79C4F3001494403C4344600C79E44366
:10179000A4070AD0C4684FEA420C06FA0CF7BC430F
:1017A0008F6807FA0CF72743C7600C7904F003042D
:1017B000022C12D1D40800EB840CDCF8204057072F
:1017C000FF0E09FA07F824EA0804D1F8108008FA95
:1017D00007F848EA0408CCF8208004684FEA420C75
:1017E00006FA0CF7BC430F7907F0030707FA0CF76A
:1017F000274307604C6814F4403F70D03C4C276886
:1018000047F480472760246822F0030704F48044EB
:101810000094384C07EB040CDCF8084897074FEAB3
:10182000177809FA08F7BC43334FB84202D10027B2
:1018300024E054E0314FB84201D101271EE0304F7F
:10184000B84201D1022719E02E4FB84201D1032737
:1018500014E02D4FB84201D104270FE02B4FB842BE
:1018600001D105270AE02A4FB84201D1062705E039
:10187000284FB84201D1072700E0082707FA08F7E8
:101880002743CCF80878DAF800405746D1F804C06E
:101890009C435FEACC2C00D51C433C60DBF8004045
:1018A0005F46D1F804C09C435FEA8C2C00D51C43F2
:1018B0003C60DEF800407746D1F804C09C435FEA04
:1018C0008C3C00D51C433C60084F083F3C68D1F875
:1018D00004C09C435FEACC3C00D51C433C60521CD6
:1018E000102AFFF42FAFBDE8F88F0000083C01403C
:1018F0004438024000300140000002400004024031
:1019000000080240000C0240001002400014024097
:1019100000180240001C02400AB1816170470904AE
:10192000FBE70000014880687047000018000020B5
:1019300002488168027811448160704718000020D5
:101940000B4810B5016841F400710160016841F471
:1019500080610160016841F480710160032000F042
:101960006FF80F2000F006F800F024F8002010BDFA
:10197000003C024070B50D4D04464FF47A71287852
:10198000B1FBF0F00A490968B1FBF0F000F0EAFAA7
:1019900048B9102C07D200222146501E00F030F822
:1019A00000206C6070BD012070BD00001800002098
:1019B000240000200A4808B5016841F48041016014
:1019C000006800F4804000900548001F016841F065
:1019D00080510160006800F08050009008BD000058
:1019E00044380240002809DB00F01F020121914029
:1019F0004009800000F1E020C0F8001170470000AD
:101A0000F0B40E4B1B680C46C3F30223C3F1070569
:101A1000042D00D90425191D072901D2002300E057
:101A2000DB1E012606FA05F1491E214099409E4021
:101A3000761E16403143F0BC00F0C5BB0CED00E053
:101A4000064900F0070208684FF6FF03184040EA15
:101A50000220034A10430860704700000CED00E0CC
:101A60000000FA052DE9F0470E46050065D0DFF8C5
:101A70001481D8F80000F7B200F00700B04207D296
:101A800088F80070D8F8000000F00700B04254D188
:101A900028683D4C810712D5400703D5206840F4E3
:101AA000E05020602878000703D5206840F46040AB
:101AB00020602068A96820F0F000084320602878A2
:101AC000C0072DD0304968680839012812D0022893
:101AD00013D0032811D00968890700292DDA21685D
:101AE00021F0030101432160FFF71CFF814641F211
:101AF000883A0EE009688903EFE709688901ECE795
:101B0000FFF710FFA0EB0901514502D90320BDE802
:101B1000F0872068696800F00C00B0EB810FEFD10E
:101B2000D8F80010404601F00701B14207D907700C
:101B3000006800F00700B04201D00120E7E72878F4
:101B4000400705D52068E96820F4E050084320608C
:101B50002878000706D52068296920F4604040EA0B
:101B6000C100206000F018F82168084AC1F3031191
:101B7000515CC8400649086006480068FFF7FAFE55
:101B80000020C4E7003C0240083802401623000849
:101B9000240000201C000020154810B5006810F03B
:101BA0000C02144813D04110042A0FD0082A0ED179
:101BB0000F4C241F2268236802F03F025B0207D506
:101BC0002068C0F38810A0FB010106E0084610BDA4
:101BD0002168C1F38811A1FB00010023FEF744FB3B
:101BE0002168C1F30141491C4900B0FBF1F010BD6F
:101BF000083802400024F4002DE9F84F04006ED0AC
:101C00002078DFF84C93C007A9F104054AD009F108
:101C100004000168C1F38101012908D00068C0F304
:101C2000810002280AD1D9F80000400206D52868B0
:101C3000800337D560680028E1D033E06068B0F5F4
:101C4000803F10D0B0F5A02F286810D020F480304D
:101C50002860286820F4802028606068A8B1FFF719
:101C600061FE06460DE0286840F48030F4E740F459
:101C700080202860F7E700BFFFF754FE801B642830
:101C800073D828688003F7D50CE0FFF74BFE0646B3
:101C900005E000BFFFF746FE801B6428F0D82868E7
:101CA0008003F7D42078DFF8AC8280074FF0000A79
:101CB0003ED5A748001D016811F00C0F08D0006840
:101CC000C0F3810002280BD1D9F80000400207D4EC
:101CD0002868800716D5E068012800D112E033E1BA
:101CE000E068B8B10120C8F80000FFF71BFE064607
:101CF00005E000BFFFF716FE801B0228C0D8286849
:101D00008007F7D52868216920F0F80040EAC10073
:101D100028600DE0C8F800A0FFF704FE064604E0C6
:101D2000FFF700FE801B02281FD828688007F7D421
:101D30002078000722D5864F87486169703771B1D6
:101D400001210160FFF7EEFD064604E0FFF7EAFD22
:101D5000801B022809D838688007F7D50EE0C0F844
:101D600000A0FFF7DFFD064605E082E0FFF7DAFDA1
:101D7000801B02287DD838688007F7D42078400778
:101D800068D5DFF8CCB100270BF13C0BDBF8000085
:101D9000C0000BD4DBF8001041F08051CBF80010EC
:101DA000DBF80000012700F0805000906B4E306897
:101DB000C00510D4306840F480703060FFF7B2FD89
:101DC000009005E0FFF7AEFD0099401A022850D8B8
:101DD0003068C005F6D55E4EA0686C3601280FD07D
:101DE0000528306810D020F001003060306820F005
:101DF00004003060A068B8B1FFF794FD00900FE0D8
:101E0000306840F00100F4E740F004003060F7E78C
:101E1000FFF788FD0099411A41F28830814266D867
:101E200030688007F4D50EE0FFF77CFD009007E0F6
:101E3000FFF778FD0099411A41F28830814256D867
:101E400030688007F4D42FB1DBF8001021F0805106
:101E5000CBF80010A069C8B33D49091D0968C1F35A
:101E6000810102294AD00228504607D0C8F86000F4
:101E700000E03CE0FFF756FD04463BE04746C8F86B
:101E80006000FFF74FFD064605E000BFFFF74AFD83
:101E9000801B02282BD828688001F7D4D4E90701D9
:101EA0000843A16A2E4A490802EB0141626A41EAED
:101EB0008211084394F82C1040EA0161C9F800101F
:101EC00001203866FFF72EFD044606E03EE000BF25
:101ED000FFF728FD001B022809D828688001F7D5E4
:101EE00034E000BFFFF71EFD001B022802D90320CB
:101EF000BDE8F88F28688001F4D427E00128F7D0E6
:101F0000D9F80000E26900F4800191421CD1226AF4
:101F100000F03F01914217D147F6C071626A01405B
:101F2000B1EB821F10D1A26A4FF0FF3300F44031B1
:101F300003EB5202B1EB024F06D194F82C1000F0E3
:101F40007060B0EB016F01D00120D1E70020CFE736
:101F50000438024000004742800E474200700040B3
:101F60000000FFFF10B5401EB0F1807F01D30120BB
:101F700010BD4FF0E02460610F21601700F023F9DD
:101F80000020A06107202061002010BDFEE70000B6
:101F90001FB500211648009101910291134A039147
:101FA000026001244FF480320461C0E9012104760B
:101FB00080F820100F4AC0E90A21C461C16080F88E
:101FC00030404461FEF7B6FC08B172B6FEE70B2064
:101FD000CDE900040720029069460548FEF76AFB38
:101FE000002801D072B6FEE71FBD000000200140AE
:101FF000280000200100000F10B517488AB01549CD
:10200000016010210024C0E901140903C0E9034163
:1020100009014161047644768476C4760477447776
:10202000FFF721F808B172B6FEE70A21CDE90441B5
:1020300048F6C00101200890CDE90014CDE9021452
:10204000CDE90640694604480994FEF713FE0AB03C
:1020500010BD000000640040700000202DE9F04138
:1020600086B014216846FEF776F9274800240168F7
:1020700041F080010160016801F080010591016873
:1020800041F004010160016801F00401059101685B
:1020900041F001010160016801F001010591016851
:1020A00041F002010160016801F00201059101683F
:1020B00041F0080101600068144F00F008004FF47F
:1020C00000550590002229463846FFF725FCDFF829
:1020D0004080AE10002231464046FFF71DFC0095BF
:1020E0000125CDE90154694638460394FFF71CFBEE
:1020F0000096CDE90154694640460394FFF714FB6E
:1021000006B0BDE8F0810000303802400004024013
:10211000000C0240FEE7FEE770477047FFF708BC7F
:1021200030B593B030216846FEF715F914210CA89C
:10213000FEF711F91D480025016841F0805101604A
:10214000006800F0805011901948016841F4804106
:1021500001600068022400F480401190012000908A
:10216000000401908001CDE9064008AA0420A021C6
:1021700082E813000B906846FFF73EFD08B172B687
:10218000FEE70CA90F2081E831004FF4A0500F901A
:102190004FF48050109005210CA8FFF763FC002835
:1021A00001D072B6FEE713B030BD000040380240E7
:1021B000007000400248016841F4700101607047FE
:1021C00088ED00E0FEE70907090E002804DB00F1B6
:1021D000E02080F80014704700F00F0000F1E020CC
:1021E00080F8141D70474FF47A73B0FBF3F230326D
:1021F0000A70B0FBF3F203FB12006422B0FBF2F3AF
:1022000030334B70B0FBF2F302FB13000A22B0FB39
:10221000F2F330338B70B0FBF2F302FB130030307B
:10222000C87070471CB5FFF78BFBFFF779FFFFF70E
:1022300015FF30480024016841F480010160006806
:10224000224600F48000009021463820FFF7D8FB9A
:102250003820FFF7C7FBFFF79BFEFFF7CDFE2749AE
:1022600000942548019408600846FFF759F808B122
:1022700072B6FEE700940022694620480194FFF7F9
:102280002CF808B172B6FEE700211C48FFF799F858
:102290001A4801221A497038FEF7CCFB1748283833
:1022A000FEF7E8FF154802212838FEF76DFC1348B9
:1022B00004211430124D8460C0E9034140F203113F
:1022C000103D0160288A0E4980B20C39FFF78BFF60
:1022D0000B4B0A491B1F1431A3F10802A1F13C006A
:1022E000FEF764FCC820FFF70DFA28680128E9D141
:1022F0002C60E7E73038024000740040980000206E
:10230000100000204FF04070E1EE100A7047000608
:102310001016000610160000000000000000010268
:1023200003040607080900004823000800000020F5
:1023300028000000C40100087023000828000020C5
:1023400078070000E0010008000000000000000025
:10235000000000000000000000000000000000007D
:102360000100000010000000000000000024F40044
:040000050800018965
:00000001FF
