:020000040800F2
:100000003808002029020008CF2200086D210008CE
:10001000CD220008550500082D260008000000002C
:10002000000000000000000000000000D3220008D3
:10003000F905000800000000D1220008D5220008C0
:10004000430200084302000843020008430200087C
:10005000430200084302000843020008430200086C
:10006000430200084302000843020008430200085C
:10007000430200084302000843020008430200084C
:10008000430200084302000821040008430200085C
:1000900059050008650500084302000843020008EE
:1000A000430200084302000843020008430200081C
:1000B000430200084302000843020008430200080C
:1000C00043020008430200084302000843020008FC
:1000D00043020008430200084302000843020008EC
:1000E00043020008430200084302000843020008DC
:1000F00043020008430200084302000843020008CC
:1001000043020008430200084302000843020008BB
:100110007D23000843020008430200084302000850
:10012000710500084302000843020008430200086A
:10013000430200084302000843020008430200088B
:10014000430200084302000843020008430200087B
:10015000430200084302000843020008430200086B
:10016000430200084302000843020008430200085B
:100170004302000843020008430200080000000098
:10018000430200084302000800F002F800F03CF8C7
:100190000AA090E8000C82448344AAF10107DA45E2
:1001A00001D100F031F8AFF2090EBAE80F0013F0F8
:1001B000010F18BFFB1A43F0010318473C2D000044
:1001C0005C2D0000103A24BF78C878C1FAD85207D5
:1001D00024BF30C830C144BF04680C6070470000C1
:1001E0000023002400250026103A28BF78C1FBD840
:1001F000520728BF30C148BF0B6070471FB502F0DF
:1002000060FE1FBD10B510BD00F0CFF81146FFF71E
:10021000F5FF02F055FA00F0EDF803B4FFF7F2FF36
:1002200003BC00F0F5F80000094880470948004782
:10023000FEE7FEE7FEE7FEE7FEE7FEE7FEE7FEE796
:10024000FEE7FEE704480549054A064B70470000F3
:100250006D230008890100083802002038080020BA
:10026000380400203804002053EA020C00F06980B2
:100270002DE9F04B4FF00006002B1FBFB3FA83F5BA
:1002800003FA05F424FA05F65E4012BF1643B2FAEB
:1002900082F502FA05F4C5F120051EBF22FA05FC1D
:1002A00044EA0C04203556EA044C4FEA144418BFC3
:1002B000641C4FF000084FF00009904271EB030CF2
:1002C00039D3002919BFB1FA81F701FA07F6B0FA5C
:1002D00080F700FA07F6C7F120071EBF20FA07FCD7
:1002E00046EA0C062037B6FBF4FCA7EB0507103FE7
:1002F00007F01F0BCBF120060CFA0BFB2CFA06F6CD
:1003000044BFB3460026202FA4BF5E464FF0000B2B
:100310005BEA060C08BF4FF0010B19EB0B09ABFBB6
:10032000027C48EB0608C01B06FB02CC0BFB03CC8F
:1003300071EB0C01C1E70B46024641464846BDE859
:10034000F08B13B54FF000004FF00001AFF30080C9
:10035000BDE81C4070474FF0000200B513469446BC
:100360009646203922BFA0E80C50A0E80C50B1F10D
:100370002001BFF4F7AF090728BFA0E80C5048BF21
:100380000CC05DF804EB890028BF40F8042B08BFBF
:10039000704748BF20F8022B11F0804F18BF00F8BB
:1003A000012B7047704770477047754600F02CF876
:1003B000AE4605006946534620F00700854618B052
:1003C00020B5FFF73FFFBDE820404FF000064FF09B
:1003D00000074FF000084FF0000B21F00701AC467A
:1003E000ACE8C009ACE8C009ACE8C009ACE8C00999
:1003F0008D46704710B50446AFF300802046BDE837
:100400001040FFF70ABF000000487047D8010020E5
:1004100001491820ABBEFEE726000200704700002D
:10042000014800F095B900002C000020464910B5A5
:100430004A6822F440324A604A6843681A434A6074
:1004400001684A6822F480724A6001684A68036958
:1004500042EA03224A6001684A6822F040724A6018
:1004600001684A6883681A434A6001688A6822F40E
:1004700000628A6001688A68C3681A438A60816A78
:100480006FF07062D14201688A6822F070628A60FF
:1004900001688A680CD0836A1A438A6001688A6896
:1004A00022F040528A6001688A68C36A1A4301E0F8
:1004B00022F040528A6001688A6822F002028A6053
:1004C00001688A68037E42EA43028A6090F820103D
:1004D000002901684A680FD042F400624A6001684E
:1004E0004A6822F460424A6001684A68174C436ACD
:1004F00004EB43331A4301E022F400624A600168CE
:10050000CA6A22F47002CA620168CA6A838B104CFC
:1005100004EB03531A43CA6201688A6822F400722A
:100520008A6001688A6890F8303042EA43228A6023
:1005300001688A6822F480628A6001688A6840697A
:1005400042EA8020886010BD0023014000E0FFFFE8
:100550000000F0FFFEE70000014800F080BB000053
:1005600074000020014800F07ABB000074000020F5
:10057000014800F00FBE0000780100200168182338
:10058000CAB2103AB2FBF3F2054B6FF30901032A2A
:100590009B5CC36500D9091D816508467047000052
:1005A000D62E000810B5014600208B698A6A4FF0EC
:1005B000C07453B1B3F5005F15D072B1012A0CD0ED
:1005C000022A0AD0032A09D104E01AB1012A06D06E
:1005D000022A03D1C96AC90100D5012010BDC96A28
:1005E000A142FAD010BD002AF7D0012AF2D0022A87
:1005F000F3D0032AF3D010BD704772B6FEE7704700
:1006000078B50024009490F83C20012A19D00122EA
:1006100080F83C200A6807230568092A13D9EE6888
:100620000A3A02EB420293409E43EE600B788A68DE
:100630000A3B03EB43039A400368DD682A43DA6010
:1006400010E0022078BD2E6902EB420293409E43E7
:100650002E610B788A6803EB43039A4003681D6997
:100660002A431A614A681F23072A13D205686E6B52
:10067000521E02EB820293409E436E630B790A88FE
:100680005B1E92B203EB83039A4003685D6B2A43BF
:100690005A6327E005680D2A12D22E6BD21F02EB97
:1006A000820293409E432E630B790A88DB1F92B22D
:1006B00003EB83039A4003681D6B2A431A6311E01E
:1006C000EE6A0D3A02EB820293409E43EE620B7992
:1006D0000A880D3B92B203EB83039A400368DD6AFC
:1006E0002A43DA62164B0568144A9D4206D10D680A
:1006F000122D03D1556845F48005556005689D426B
:1007000018D10B68102B01D0112B13D1536843F46F
:1007100000035360096810290CD10A490A4A096884
:10072000B1FBF2F101EB8101490000E0491E0091AB
:100730000029FBD180F83C40002078BD0023014017
:10074000002001402800002040420F007047704701
:1007500070B5044600680668456816F0020F05F09B
:1007600020012AD049B3216CC90603D4216C41F47D
:1007700000712164816811F0405F17D1217EA9B911
:10078000C16A11F4700F02D0816849050ED4416826
:1007900021F020014160206C20F480702064206CE6
:1007A000C00403D4206C40F0010020642046FFF711
:1007B000CDFF21686FF01200086016F0040F05F0FD
:1007C000800132D089B3206CC00603D4206C40F481
:1007D000005020642068816811F4401F1ED1816B95
:1007E00011F4401F02D08168490517D441684905BA
:1007F00014D4816811F0405F10D1217E71B9416835
:1008000021F080014160206C20F480502064206C35
:10081000C00503D4206C40F0010020642046FFF79F
:10082000EEFE21686FF00C00086016F0010F05F075
:1008300040010FD071B120680068C0070AD0206C59
:1008400040F480302064204600F043F821686FF0C7
:100850000100086016F0200F05F080610ED000291D
:100860000CD0606C40F00200606420686FF02005DE
:1008700005602046FFF76BFF2068056070BD70B50E
:1008800004004FF0000503D0206C002610B107E0F3
:10089000012070BD204600F01DF8666484F83C60BD
:1008A000206CC00610D4206C20F4885040F0020068
:1008B00020642046FFF7BAFD6664206C20F0020039
:1008C00040F00100206400E0012584F83C602846E7
:1008D00070BD704770B586B0064614216846FFF7B4
:1008E0003AFD2149306888423CD120480025016802
:1008F00041F480710160006800F4807005901B482D
:100900001438016841F0040101600068694600F094
:1009100004000590022000900320CDE90105144851
:1009200000F072FD144C1348C4E900050015A560E1
:10093000C4E90350800060618000A0618011C4E9B7
:1009400007052046656200F0F5FC08B1FFF755FE8B
:10095000B463002211461220A66300F0C1FE1220EB
:1009600000F0B0FE06B070BD0020014044380240E7
:1009700000080240106402407801002090F8202016
:10098000012A07D0022A05D0416A41F48021416240
:1009900001207047006842690A43426100207047A5
:1009A000F0B590F820500468A468012D05D0022D00
:1009B00003D0416A41F4802153E014F0406F01D12B
:1009C000E5004BD5C4F30164022C03D9416A41F41C
:1009D000000146E00125A5401D608D684FF4C073FD
:1009E0009DB1CE6835434E6845EAC605066803EBFF
:1009F0000417F5514FF4C275076805EB04150E692D
:100A00007E51097D012905D009E00E88CD6845EAAF
:100A10004655EBE701684E5946F480764E51117900
:100A2000D2F805504FF4C67641EA0525016806EB79
:100A300004168D511178D2F801204FF4C47541EAA3
:100A40000221026805EB04155151006803EB041103
:100A5000425842F0010242500020F0BD416A41F488
:100A6000001141620120F0BD10B590F82020012A4C
:100A700007D0022A05D0416A41F480214162012059
:100A800010BD3B48D0F8002242F00102C0F800221D
:100A9000D0F8002222F47C52C0F80022D0F80022C4
:100AA0004B6A42EA0322C0F800220A7D02F01F03CB
:100AB00001229A40D0F81C329343C0F81C32CB6913
:100AC000B3B9D0F80C329343C0F80C328C894B6820
:100AD00064F31F434C6900EBC404C4F840320C8932
:100AE0000B6864F31F434C6900EBC404C4F8443240
:100AF000CB69012B16D1D0F80C321343C0F80C325D
:100B00000C884B6864F31F434C6900EBC404C4F8C1
:100B100040320C89CB6864F31F434C6900EBC4047A
:100B2000C4F844328B69002BD0F804320ED0134342
:100B3000C0F804320B69002BD0F8143208D01343EC
:100B4000C0F81432096A012904D008E09343EFE7A2
:100B50009343F5E7D0F81C121143C0F81C12D0F8EB
:100B6000001221F00101C0F80012002010BD0000A9
:100B700000640040704730B590F82040012C05D04B
:100B8000022C03D0416A41F480215DE00468002911
:100B900055D02469A40754D04FF4D874056804EBE9
:100BA00001142D5915F00405956005682D594ED096
:100BB000ED08556005682C5904F00204D4604FF428
:100BC000DA74056804EB01142D5905F00F05156161
:100BD00005682D59C5F30725956105682C59240C26
:100BE00054614FF4DC72046802EB0112A4581C70CB
:100BF0000468A458240A5C700468A458240C9C70EF
:100C00000468A258120EDA704FF4DE72046802EB28
:100C10000112A4581C710468A458240A5C71046869
:100C2000A458240C9C710468A258120EDA71006852
:100C300081B1016941F020010161002030BDE4680B
:100C4000A8E7416A41F400114162012030BD6D0DF9
:100C50001560AFE7C16841F02001C160EDE72DE903
:100C6000F05F0546006800244669D0F80490876864
:100C7000D0F80CB0D0F810A0D0F81880F10748D008
:100C8000F90714D001218160B80703D5284600F088
:100C900020FA0CE0780702D54FF4006407E038072B
:100CA00002D54FF4805402E0284600F011FAF8050E
:100CB00016D529684FF480708860B80503D528469A
:100CC00000F009FA0CE0780502D544F4005407E07E
:100CD000380502D544F4804402E0284600F0FAF9D1
:100CE000F80316D529684FF480308860B80303D51F
:100CF000284600F0F2F90CE0780302D544F40044F1
:100D000007E0380302D544F4803402E0284600F0BE
:100D1000E3F9300707D55FEACB6004D529681020D6
:100D200044F40074C86070074FF0080707D55FEA05
:100D30000B7004D52868C760284600F061F9B00739
:100D400006D52868C068800702D0284600F05AF906
:100D5000700607D55FEACA6004D52968102044F4FC
:100D600080640861B00607D55FEA0A7004D5286878
:100D70000761284600F07CF9F00606D5286800696E
:100D8000800702D0284600F074F9B00308D55FEA66
:100D9000C96005D5296810204860284600F06AF926
:100DA000F00307D55FEA097004D528684760284634
:100DB00000F094F9300446D55FEA497040D5F0055B
:100DC00004D55FEAC87001D044F00104B00504D531
:100DD0005FEA887001D544F00204700504D55FEA2B
:100DE000487001D544F00404300529D518F0700F7F
:100DF00026D008F07000402815D006DC102809D055
:100E000020280AD0302816D10AE050280ED06028B9
:100E100011D10EE044F008040DE044F010040AE0A3
:100E200044F0200407E044F0400404E044F080046F
:100E300001E044F480742868816921F070018161C7
:100E4000296804204860002C05D0686A2043686245
:100E50002846FFF78FFEBDE8F09F70B5040003D071
:100E600094F8200010B104E0012070BD204600F08D
:100E700081F82068016841F00101016000F0C2FBC7
:100E80000546052604E000F0BDFB401B0A2811D8EA
:100E900020684068C007F6D02068016821F0020190
:100EA000016000F0AFFB05460BE000F0ABFB401B20
:100EB0000A2806D9606A40F40030606284F8206035
:100EC000D2E7206840688007EFD4207E01282068A0
:100ED00001683DD021F080010160607E012820681A
:100EE000016838D021F040010160A07E012820680F
:100EF000016833D021F020010160E07E01282068E4
:100F000001682ED041F010010160207F0128206887
:100F1000016829D021F008010160607F0128206864
:100F2000016824D021F004010160D4E902010843E2
:100F3000D4E90412114308436168491E084321683B
:100F4000C86100206062012084F82000002070BD8C
:100F500041F08001C0E741F04001C5E741F02001C8
:100F6000CAE721F01001CFE741F00801D4E741F0D2
:100F70000401D9E710B586B0044614216846FFF78E
:100F8000EAF91C492068884231D11B4800210268D7
:100F900042F000720260006800F000700590164890
:100FA0001038026842F002020260006800F002009D
:100FB00005904FF4407000900220CDE9010103201C
:100FC00003900920049069460C4800F01DFA0022A5
:100FD0001146142000F084FB142000F073FB002263
:100FE0001146152000F07CFB152000F06BFB06B0CD
:100FF00010BD000000640040403802400004024080
:101000007047000010B5144B144A0021FFF7B3FDE0
:10101000114801F0EBFB01F0CEFD9FED111B53ECED
:10102000112B01F041FC9FED101B53EC112B01F033
:10103000D9FD01F007FC084900EE100A091F81EDF7
:10104000030ABDEEC00A10EE100A48610349BDE86C
:1010500010401C3101F01ABB04000020F8000020F1
:101060000000000000FEAF400000000000C0724021
:10107000704770477047000070B5044690F8200034
:10108000012804D0606A40F40020606218E0022069
:1010900084F820002068016821F00101016000F05F
:1010A000B1FA05460EE000BF00F0ACFA401B0A287A
:1010B00008D9606A40F400306062052084F820009E
:1010C000012070BD20684068C007EDD1606270BD2E
:1010D00070477047704770477047704770472DE9F9
:1010E000F0410446876D00F08DFA064694F835000D
:1010F0000025022806D08020606584F83450012045
:10110000BDE8F0812068016821F0160101602068C7
:10111000416921F080014161206C08B9A06C20B1C7
:101120002068016821F0080101602068016821F051
:10113000010101600CE000F065FA801B052807D969
:1011400020206065032084F8350084F83450D7E708
:1011500020680068C007EED194F85C103F208840FA
:10116000B860012084F8350084F834500020C7E7C7
:1011700090F83510022903D0802141650120704785
:10118000052180F835100068016821F00101016037
:10119000002070472DE9F84304464FF00009CDF8D0
:1011A000009063484FF41651A56D0068B0FBF1F74D
:1011B0002E6894F85C10082000FA01F131420FD03B
:1011C00021680A6852070BD50A6822F004020A60F7
:1011D00094F85C108840A860606D40F00100606584
:1011E00094F85C104FF0010808FA01F0304208D082
:1011F00021684969090604D5A860606D40F00200C5
:10120000606594F85C1004208840304208D0216862
:101210000968890704D5A860606D40F00400606526
:1012200094F85C1010208840304218D0216809687A
:10123000090714D5A86020680168490304D500682F
:10124000000308D5A16C07E00168C90503D4016853
:1012500021F008010160216C09B12046884794F80B
:101260005C1020208840304231D021680968C906CE
:101270002DD5A86094F8350005282068016806D0AF
:10128000490347D5006800031DD4616C1CE021F0C0
:10129000160101602068416921F080014161206CE4
:1012A00008B9A06C20B12068016821F00801016034
:1012B00094F85C103F208840A86084F8358084F85A
:1012C0003490216D1FE0E16B09B120468847606DC5
:1012D00000282BD0606DC00714D0052084F835009D
:1012E0002068016821F0010101600098401C009015
:1012F000B84203D820680068C007F6D184F835806A
:1013000084F83490E16C002910D001B02046BDE88B
:10131000F04308470168C905D5D4016821F01001E0
:10132000016084F8358084F83490CCE7BDE8F88318
:10133000280000202DE9F041044600F063F906463C
:101340005CB1022084F83500002584F83450206810
:10135000016821F0010101600DE00120BDE8F0818C
:1013600000F050F9801B052805D920206065032076
:1013700084F83500F2E720680068C007F0D12268E1
:10138000116820480140D4E901031843D4E9033629
:101390003343184363691843A3691843E369184347
:1013A000236A18430843616A042903D1D4E90B1363
:1013B00019430843106020684069666A20F00701FD
:1013C00030460E43012704280CD1A06A0643E06A88
:1013D00040B12046FFF7E6F820B14020606584F870
:1013E0003570BAE7206846612046FFF7C7F894F8E1
:1013F0005C203F2191408160656584F83570002054
:10140000ACE700003F8010F02DE9F84FDFF8BCA1F9
:101410000022012503264FF00F090AF1040BAAF15F
:10142000040E00BF0B6805FA02F42340A34270D1FA
:101430000F7907F00307012F01D0022F16D187681B
:101440004FEA420806FA08FC27EA0C07D1F80CC05C
:101450000CFA08FC4CEA070CC0F808C04768A74320
:101460000C79C4F3001494403C4344600C79E44389
:10147000A4070AD0C4684FEA420C06FA0CF7BC4332
:101480008F6807FA0CF72743C7600C7904F0030450
:10149000022C12D1D40800EB840CDCF82040570752
:1014A000FF0E09FA07F824EA0804D1F8108008FAB8
:1014B00007F848EA0408CCF8208004684FEA420C98
:1014C00006FA0CF7BC430F7907F0030707FA0CF78D
:1014D000274307604C6814F4403F70D03C4C2768A9
:1014E00047F480472760246822F0030704F480440F
:1014F0000094384C07EB040CDCF8084897074FEAD7
:10150000177809FA08F7BC43334FB84202D10027D5
:1015100024E054E0314FB84201D101271EE0304FA2
:10152000B84201D1022719E02E4FB84201D103275A
:1015300014E02D4FB84201D104270FE02B4FB842E1
:1015400001D105270AE02A4FB84201D1062705E05C
:10155000284FB84201D1072700E0082707FA08F70B
:101560002743CCF80878DAF800405746D1F804C091
:101570009C435FEACC2C00D51C433C60DBF8004068
:101580005F46D1F804C09C435FEA8C2C00D51C4315
:101590003C60DEF800407746D1F804C09C435FEA27
:1015A0008C3C00D51C433C60084F083F3C68D1F898
:1015B00004C09C435FEACC3C00D51C433C60521CF9
:1015C000102AFFF42FAFBDE8F88F0000083C01405F
:1015D0004438024000300140000002400004024054
:1015E00000080240000C02400010024000140240BB
:1015F00000180240001C02400AB1816170470904D2
:10160000FBE7000001488068704700001C000020D4
:101610000248816802781144816070471C000020F4
:101620000B4810B5016841F400710160016841F494
:1016300080610160016841F480710160032000F065
:101640006FF80F2000F006F800F024F8002010BD1D
:10165000003C024070B50D4D04464FF47A71287875
:10166000B1FBF0F00A490968B1FBF0F000F00AFBA9
:1016700048B9102C07D200222146501E00F030F845
:1016800000206C6070BD012070BD00001C000020B7
:10169000280000200A4808B5016841F48041016033
:1016A000006800F4804000900548001F016841F088
:1016B00080510160006800F08050009008BD00007B
:1016C00044380240002809DB00F01F02012191404C
:1016D0004009800000F1E020C0F8001170470000D0
:1016E000F0B40E4B1B680C46C3F30223C3F107058D
:1016F000042D00D90425191D072901D2002300E07B
:10170000DB1E012606FA05F1491E214099409E4044
:10171000761E16403143F0BC00F089BF0CED00E0AE
:10172000064900F0070208684FF6FF03184040EA38
:101730000220034A10430860704700000CED00E0EF
:101740000000FA052DE9F0470E46050065D0DFF8E8
:101750001481D8F80000F7B200F00700B04207D2B9
:1017600088F80070D8F8000000F00700B04254D1AB
:1017700028683D4C810712D5400703D5206840F406
:10178000E05020602878000703D5206840F46040CE
:1017900020602068A96820F0F000084320602878C5
:1017A000C0072DD0304968680839012812D00228B6
:1017B00013D0032811D00968890700292DDA216880
:1017C00021F0030101432160FFF71CFF814641F234
:1017D000883A0EE009688903EFE709688901ECE7B8
:1017E000FFF710FFA0EB0901514502D90320BDE826
:1017F000F0872068696800F00C00B0EB810FEFD132
:10180000D8F80010404601F00701B14207D907702F
:10181000006800F00700B04201D00120E7E7287817
:10182000400705D52068E96820F4E05008432060AF
:101830002878000706D52068296920F4604040EA2E
:10184000C100206000F038F82168084AC1F3031194
:10185000515CC8400649086006480068FFF7FAFE78
:101860000020C4E7003C024008380240DE2E000899
:10187000280000202000002004480549006809686D
:10188000044AC1F38221515CC840704728000020FF
:1018900008380240EE2E000804480549006809682F
:1018A000044AC1F34231515CC8407047280000200F
:1018B00008380240EE2E0008154810B5006810F0F8
:1018C0000C02144813D04110042A0FD0082A0ED15C
:1018D0000F4C241F2268236802F03F025B0207D5E9
:1018E0002068C0F38810A0FB010106E0084610BD87
:1018F0002168C1F38811A1FB00010023FEF7B4FCAD
:101900002168C1F30141491C4900B0FBF1F010BD51
:10191000083802400024F4002DE9F84F04006ED08E
:101920002078DFF84C93C007A9F104054AD009F1EB
:1019300004000168C1F38101012908D00068C0F3E7
:10194000810002280AD1D9F80000400206D5286893
:10195000800337D560680028E1D033E06068B0F5D7
:10196000803F10D0B0F5A02F286810D020F4803030
:101970002860286820F4802028606068A8B1FFF7FC
:1019800041FE06460DE0286840F48030F4E740F45C
:1019900080202860F7E700BFFFF734FE801B642833
:1019A00073D828688003F7D50CE0FFF72BFE0646B6
:1019B00005E000BFFFF726FE801B6428F0D82868EA
:1019C0008003F7D42078DFF8AC8280074FF0000A5C
:1019D0003ED5A748001D016811F00C0F08D0006823
:1019E000C0F3810002280BD1D9F80000400207D4CF
:1019F0002868800716D5E068012800D112E033E19D
:101A0000E068B8B10120C8F80000FFF7FBFD06460A
:101A100005E000BFFFF7F6FD801B0228C0D828684C
:101A20008007F7D52868216920F0F80040EAC10056
:101A300028600DE0C8F800A0FFF7E4FD064604E0CA
:101A4000FFF7E0FD801B02281FD828688007F7D425
:101A50002078000722D5864F87486169703771B1B9
:101A600001210160FFF7CEFD064604E0FFF7CAFD45
:101A7000801B022809D838688007F7D50EE0C0F827
:101A800000A0FFF7BFFD064605E082E0FFF7BAFDC4
:101A9000801B02287DD838688007F7D4207840075B
:101AA00068D5DFF8CCB100270BF13C0BDBF8000068
:101AB000C0000BD4DBF8001041F08051CBF80010CF
:101AC000DBF80000012700F0805000906B4E30687A
:101AD000C00510D4306840F480703060FFF792FD8C
:101AE000009005E0FFF78EFD0099401A022850D8BB
:101AF0003068C005F6D55E4EA0686C3601280FD060
:101B00000528306810D020F001003060306820F0E7
:101B100004003060A068B8B1FFF774FD00900FE0DA
:101B2000306840F00100F4E740F004003060F7E76F
:101B3000FFF768FD0099411A41F28830814266D86A
:101B400030688007F4D50EE0FFF75CFD009007E0F9
:101B5000FFF758FD0099411A41F28830814256D86A
:101B600030688007F4D42FB1DBF8001021F08051E9
:101B7000CBF80010A069C8B33D49091D0968C1F33D
:101B8000810102294AD00228504607D0C8F86000D7
:101B900000E03CE0FFF736FD04463BE04746C8F86E
:101BA0006000FFF72FFD064605E000BFFFF72AFDA6
:101BB000801B02282BD828688001F7D4D4E90701BC
:101BC0000843A16A2E4A490802EB0141626A41EAD0
:101BD0008211084394F82C1040EA0161C9F8001002
:101BE00001203866FFF70EFD044606E03EE000BF28
:101BF000FFF708FD001B022809D828688001F7D5E7
:101C000034E000BFFFF7FEFC001B022802D90320CE
:101C1000BDE8F88F28688001F4D427E00128F7D0C8
:101C2000D9F80000E26900F4800191421CD1226AD7
:101C300000F03F01914217D147F6C071626A01403E
:101C4000B1EB821F10D1A26A4FF0FF3300F4403194
:101C500003EB5202B1EB024F06D194F82C1000F0C6
:101C60007060B0EB016F01D00120D1E70020CFE719
:101C70000438024000004742800E47420070004096
:101C80000000FFFF10B5401EB0F1807F01D301209E
:101C900010BD4FF0E02460610F21601700F0C7FC19
:101CA0000020A06107202061002010BD7047704710
:101CB000F8B5016804460868CA684B6910F00F0F50
:101CC0004FF0000559D003F0010602F49077374336
:101CD00065D0C10705D0D10503D5216C41F00101C4
:101CE0002164410705D5D90703D0216C41F00201D9
:101CF0002164810705D5D90703D0216C41F0040187
:101D00002164010707D502F02001314303D0216C83
:101D100041F008012164216C00293AD0800604D5E5
:101D2000900602D5204600F05EFB20684069216CD9
:101D3000C0F38010090700D460B3204600F02CFBEC
:101D400020684069400621D52068143050E8001F03
:101D500021F0400140E80012002AF5D1A06BA8B1A3
:101D60006C490165A06BFFF703FA002811D0A06B46
:101D7000016D01B0BDE8F040084783060FD593061A
:101D80000DD52046BDE8F84000F02DBB2046FFF7FA
:101D90008EFFF8BD2046FFF78AFF2564F8BD266B4D
:101DA0002023012E79D1C60677D5D60675D50868C9
:101DB000486800904869400640D5A16B08684068B3
:101DC0000004000CEAD0A28D8242E7D9E085C86900
:101DD000B0F5807F2DD020680C3050E8001F21F432
:101DE000807140E80012002AF5D12068143050E8D4
:101DF000001F21F0010140E80012002AF5D12068FF
:101E0000143050E8001F21F0400140E80012002A81
:101E1000F5D184F83E30256320680C3050E8001F6F
:101E200021F0100140E80012002AF5D1A06BFFF765
:101E300056F9A08DE18D401A81B229E0A08DE18D87
:101E4000401A81B2E08D0028A8D00029A6D02068D1
:101E50000C3050E8002F22F4907240E80026002E4B
:101E6000F5D12068143050E8002F22F0010240E83C
:101E70000026002EF5D184F83E30256320680C3012
:101E800050E8002F22F0100240E80023002BF5D18B
:101E90002046FFF70BFFF8BDFFE705062BD515061B
:101EA00029D594F83D002128F5D1A068B0F5805FD0
:101EB00001D12069B0B1206A411C216221680078FB
:101EC0004860E08C401E0004000CE084E3D12068F0
:101ED000C16821F08001C1602068C16841F0400103
:101EE000C160D8E7206A0088C0F308004860206A13
:101EF000801C2062E5E74006CDD55006CBD5CA68E8
:101F0000204622F04002CA6084F83D3000F02DF9EE
:101F1000C1E700008923000870B5040004D094F8DC
:101F20003D00002510B106E0012070BD84F83C5052
:101F3000204600F023F8242084F83D002068C16882
:101F400021F40051C160204600F0AEFA206801691A
:101F500021F4904101612068416921F02A01416129
:101F60002068C16841F40051C1602564202084F8D4
:101F70003D0084F83E00002070BD000010B586B022
:101F8000044614216846FEF7E6F91749206888429E
:101F900027D116480021026842F40022026000683E
:101FA00000F40020059011481038026842F0010248
:101FB00002600068022200F0010005900320CDE9D4
:101FC0000210CDE900020820049069460848FFF796
:101FD0001BFA002211463420FFF782FB3420FFF762
:101FE00071FB06B010BD0000004C004040380240BC
:101FF000000002402DE9F84F044690F83E009A4652
:1020000016460D46202853D1FDB1F6B194F83C0098
:1020100001284DD0012084F83C00002727642220AD
:1020200084F83E002763FFF7EDFAA6858146E68532
:10203000A0684FF48058404501D1206940B12E4638
:102040005FF0000584F83C7027E00120BDE8F88FC0
:102050000026F7E74B46002220212046CDF800A0BD
:1020600000F0A8FA08B10320F0E726B1A0684045C7
:102070001BD038B108E020684068C0F3080025F89C
:10208000020B07E0206980B12068406800F07F0003
:1020900006F8010BE08D401EE085E08D0028D9D1C7
:1020A000202084F83E000020D0E720684068EFE759
:1020B0000220CBE7704700002DE9F843044690F872
:1020C0003D001F4616460D4620284CD1C5B1BEB175
:1020D00094F83C00012846D0012084F83C004FF0E1
:1020E0000008C4F84080212084F83D00FFF78AFAF8
:1020F000A6848146E684A068B0F5805F03D004E042
:102100000120BDE8F883206928B12E465FF0000564
:1021100084F83C800EE00026FAE78021204600F09B
:1021200049FAA0B9AEB116F8010B21684860E08CFD
:10213000401EE084E08C4B464FF0000200970028E0
:10214000EBD14FF04001204600F034FA30B10320CB
:10215000D7E735F8020BC0F30800E6E7202084F843
:102160003D000020CDE70220CBE77047FEE70000EE
:102170001FB500211648009101910291134A039165
:10218000026001244FF480320461C0E90121047629
:1021900080F820100F4AC0E90A21C461C16080F8AC
:1021A00030404461FEF76BFB08B172B6FEE70B20CE
:1021B000CDE900040720029069460548FEF720FAA1
:1021C000002801D072B6FEE71FBD000000200140CC
:1021D0002C0000200100000F10B517488AB01549E7
:1021E000016010210024C0E901140903C0E9034182
:1021F00009014161047644768476C4760477447795
:10220000FEF72BFE08B172B6FEE70A21CDE90441C4
:1022100042F2600101200890CDE90014CDE90214DA
:10222000CDE90640694604480994FEF71DFC0AB052
:1022300010BD0000006400407400002070B586B03E
:1022400014216846FEF787F81E480024016841F013
:1022500080010160016801F080010591016841F091
:1022600004010160016801F004010591016841F079
:1022700001010160016801F001010591016841F06F
:1022800008010160016801F008010591016841F051
:102290000201016000680C4E00F002004FF420457E
:1022A0000590002229463046FFF7A6F90120009547
:1022B000CDE90104694630460394FFF7A5F806B05E
:1022C00070BD000030380240000C0240FEE7FEE71F
:1022D00070477047FFF79CB930B593B0302168461E
:1022E000FEF739F814210CA8FEF735F81D48002533
:1022F000016841F080510160006800F08050119049
:102300001948016841F4804101600068022400F42A
:102310008040119001200090000401908001CDE9DF
:10232000064008AA0420A02182E813000B9068460A
:10233000FFF7F2FA08B172B6FEE70CA90F2081E8A8
:1023400031004FF4A0500F904FF4805010900521B1
:102350000CA8FFF7F7F9002801D072B6FEE713B01A
:1023600030BD000040380240007000400248016863
:1023700041F470010160704788ED00E00148FFF70B
:1023800097BC00009C00002010B5806B0021C18527
:10239000C184FFF78CFC10BD01680C3151E8002F9F
:1023A00022F4907241E80023002BF5D1016814312A
:1023B00051E8002F22F0010241E80023002BF5D163
:1023C000016B012909D101680C3151E8002F22F07D
:1023D000100241E80023002BF5D1202180F83E10A7
:1023E00000210163704708B590F83E10222901D002
:1023F000022008BD82684FF480539A4201D10169DE
:1024000021B1816A9A421BD04AB10AE00268816A0E
:102410005268C2F308020A80816A891C08E00269D6
:1024200072B10268526802F07F020A70816A491C28
:102430008162C18D491E0904090CC18503D019E0D0
:1024400002685268F1E70168CA6822F02002CA6097
:102450000168CA6822F48072CA6001684A6922F081
:1024600001024A61202180F83E10016B012903D04E
:10247000FFF720FE002008BD0021016301680C3138
:1024800051E8002F22F0100241E80023002BF5D183
:1024900001680A68D20602D50A6849680091818DF0
:1024A000FFF704FCE6E7000070B504460068016928
:1024B000E26821F44051114301612169A068E26999
:1024C00008436169114308432168CA6849F20C63F3
:1024D0009A430243CA6020684169A26921F44071AD
:1024E0001143416131492068884202D03049884215
:1024F00002D1FFF7D1F901E0FFF7BEF9E26900234D
:10250000192164253226B2F5004F626828D0A0FB5D
:102510000101930F9200FDF7A7FE0146B0FBF5F015
:102520006FF01802504301EB800006EB0010B0FB87
:10253000F5F000F0F002B1FBF5F002EB0012B1FB98
:10254000F5F06FF01803584301EB800006EB001024
:10255000B0FBF5F000F00F0021681044886070BDFA
:10256000A0FB010192185B41FDF77EFE0146B0FB26
:10257000F5F00201B1FBF5F06FF01803584301EBE1
:10258000800006EBC000B0FBF5F000F0F80002EBB5
:102590004002B1FBF5F0584301EB800006EBC000B0
:1025A000B0FBF5F000F00700D6E700000010014096
:1025B000001401402DE9F041984617460E460446A6
:1025C000069D27E0681C25D02DB1FFF71BF8A0EB76
:1025D0000800A8421ED920680C3050E8001F21F4E2
:1025E000D07140E80012002AF5D12068143050E87C
:1025F000001F21F0010140E80012002AF5D120203F
:1026000084F83D0084F83E00002084F83C0003205C
:10261000BDE8F0812068006836EA000004D00020A0
:10262000B842CFD00020F3E70120F9E7FEE7090721
:10263000090E002804DB00F1E02080F80014704748
:1026400000F00F0000F1E02080F8141D70474FF4F7
:102650007A73B0FBF3F230320A70B0FBF3F203FB93
:1026600012006422B0FBF2F330334B70B0FBF2F394
:1026700002FB13000A22B0FBF2F330338B70B0FB85
:10268000F2F302FB13003030C870704720220A7149
:10269000642290FBF2F330330B702E234B7090FBCF
:1026A000F2F302FB13000A2290FBF2F330338B703B
:1026B00090FBF2F302FB13003030C870704700004B
:1026C0002DED068B82B0FEF7ABFFFFF705FEFFF79F
:1026D000B5FD3C480024016841F4800101600068B8
:1026E000224600F48000009021463820FEF7F8FFD3
:1026F0003820FEF7E7FFFFF76FFDFFF739FD33489E
:10270000314901604FF4E131C0E901140C21C4608A
:10271000C0E904418461C461FFF7FEFB08B172B6F1
:10272000FEE72A482838FEF7A7FC28480221283867
:10273000FEF724F92548042144309FED258B846061
:10274000C0E9034140F24641234C9FED249B9FED9D
:1027500025AB4FF47A7501601C492B460522783170
:102760001A48FFF7A9FC19492B463222AA3117480B
:10277000FFF740FC1548AA3000F050F800F01BFAB3
:1027800053EC182B00F090F800F05CF8206100F09A
:1027900027FB53EC192B00F087F853EC1A2B00F0B1
:1027A00021FA00F0D9F9A06180B20B49FFF74FFF81
:1027B0000649094B44310833074AA1F16C00FEF782
:1027C000EFF8C9E730380240004C00409C00002080
:1027D00000000000000059400000002066666666A8
:1027E000666608400000000000FEAF400178C27835
:1027F000303901EB4103C3EBC11102EBC101427857
:10280000642312FB03F2807800EB800002EB4000AF
:102810000844A0F5A050D038704700000178C27875
:10282000303901EBC10303EB011102EB8101807828
:10283000034A00EB800002EB4000084470470000B0
:10284000F0FDFFFF21F00042A2F16052B2F5801FBF
:1028500001F0004328BFD2F17F6C0BD95FEA001C66
:1028600043EAC20242EB507018BF704728BF20F005
:1028700001007047B2F5801FBCBF184670474FEA91
:10288000410C1CF5001F02D2084600F01FBB70B5BA
:1028900000F052FA00000089FFF7F6BF4FF0004049
:1028A000A0F58000704700002DE9C04130B4DFF88A
:1028B000A0C23CEA111418BF3CEA131400F0EC80EB
:1028C00081EA03051CEA111444EAD57418BF1CEA16
:1028D000131500F0C780A4EB05044FF0004545EA4E
:1028E000C12145EAC32341EA505143EA525304F15E
:1028F0007F74994204F500344FEAC0204FEAC222A7
:1029000008BF904200F09C804FEA13650FF240161A
:10291000765D4FEA134506FB05F7C7F1807706FBA6
:1029200007F74FEAD737A7FB03687642C8F5803828
:10293000A7FB06CE38BFA8F1010807FB08E64FF059
:10294000000EA6FB028CE6FB03CEDCF1000CCEF100
:10295000004E38BFAEF1010EA6FB0C584FF0000739
:102960004FF00005E6FB0E87A1FB08C6A0FB07CED3
:1029700016EB0E0645F10005E1FB076515F1E04E8B
:102980007EBFA4F580345FEA46066D4116F18007EC
:1029900045F100054FEA17274FEA066647EA056743
:1029A000A6F1DE46B6F1805F4FEA15251FD93846FD
:1029B00024F0010C05EBC471BCF1FE6F01EB0C11AE
:1029C00002D8F0BCBDE8008124425CBF01F5801E46
:1029D0009EEAC47F02D4F0BCBDE80081244238D412
:1029E000F0BCA1F1C041BDE8004100F0F3B94FEAED
:1029F000D22242EA43524FEAD323A7FB02864FEA90
:102A0000D02040EA415007FB03661EEA0E0F4FEA52
:102A1000D12105FB026658BFA6EB0056B6EB005667
:102A20004FEA520E4EEAC37E18EB0E0E56EB530ED3
:102A3000BDD518EB02085E417F1C55F10005B6E7D5
:102A40004FF480154FF000074FF000064FF00008DC
:102A5000ADE7F0BC4FF0000001F1C04101F00041D2
:102A6000BDE8008111EA0C1F0CEA131500D00CE040
:102A700013EA0C1F00F025804FF00000F0BC81EA43
:102A8000030101F00041BDE80081F0BCBDE8004158
:102A900081EA030100F09EB9F0BCBDE8004170B5C9
:102AA00000F04AF9097EFC3E00F007B881EA030114
:102AB0004FF0000001F00041704781EA030100F08F
:102AC00089B9F0BCBDE800414FF0000021497047D2
:102AD000FFFDFBF9F7F5F4F2F0EEEDEBE9E8E6E4E3
:102AE000E3E1E0DEDDDBDAD8D7D5D4D3D1D0CFCD6A
:102AF000CCCBCAC8C7C6C5C4C2C1C0BFBEBDBCBBA3
:102B0000BAB9B8B7B6B5B4B3B2B1B0AFAEADACAB9D
:102B1000AAA9A8A8A7A6A5A4A3A3A2A1A09F9F9E77
:102B20009D9C9C9B9A999998979796959594939329
:102B3000929191908F8F8E8E8D8C8C8B8B8A8989C0
:102B40008888878786858584848383828281818043
:102B50000000FF070000F87F4FEA41034FEA53539C
:102B6000A3F58063D3F11E03C8BFD3F1210C0CDDA4
:102B70004FF0004242EAC12242EA505232FA03FCCC
:102B80008CEAE17CACEBE1707047102BC4BF0020F5
:102B9000704703F5787CBCF1FF3F04D06FF0004232
:102BA00082EA2100704770B500F0C6F8499224808F
:102BB00000207047F2E710F0004248BF4042B0FAF0
:102BC00080F310FA03F10AD0C3F11D0303F580630B
:102BD0004FEA415002EB035202EBD12170474FF014
:102BE00000007047DFF848C170B51CEA111E1EBF17
:102BF0001CEA13159EEA0C0F95EA0C0F00F06F808B
:102C000081EA030423EA4C134EEAD47E21EA4C11F4
:102C100041F4801143F48013AE44A1FB024CA0FBAD
:102C20000365AEF17F7E361955EB0C05A1FB034C15
:102C30004CF10003A0FB021C16EB0C06654153F19E
:102C40000003094218BF46F0010613F4007F0BD1C0
:102C50004FEA03314FEA0530340341EA155140EAA7
:102C600016506FF003020AE04FEAC3214FEAC52075
:102C7000F40241EA555140EA56506FF0020202EB6D
:102C80002E4201EB025585EACE710AD05FEA440C70
:102C900018BF24F0004450F1000041F1000120EA87
:102CA000D47040F2FE7C624500D270BDA84214BFD1
:102CB0004FF080444FF04044002E08BF0024BEF186
:102CC000806FA8BFA1F1C041BDE8704080F2828052
:102CD0004FF0000001F1C04101F0004170479EEA51
:102CE0000C0F0CEA131518BF95EA0C0F06D04FF025
:102CF000000081EA030E0EF0004170BD00F01CF8E8
:102D00008900013E00F007B800F009B84FEA430C13
:102D10005FEA5C5C08D081EA030100F05BB84FEA2F
:102D2000410C5FEA5C5CF6D14FF00000014970474E
:102D30000000FF070000F87F0EF1020E2EF0030ED8
:102D40005EF8046B364205D4012A43EB030515F502
:102D5000001F12D8012841EB010C1CF5001F0CD8F4
:102D60000ED14FEAD17C15F5001F0CEB4C0C0CF189
:102D7000020C08BF4CEBD37C04E04FF0080C01E0E0
:102D80004FEAD37C0CEB4C0526FA05F606F0070655
:102D9000B6F1040C06D20EEB860CBDE870404CF088
:102DA000010C6047DFE80CF0090B02024FF0004114
:102DB0004FF00000A1F5002170BD19461046012812
:102DC00051EB010418BFD4F5001484BF002001F0BA
:102DD000004170BD0808A0F500114FEA31017047AD
:102DE00043004FEAD30C4FEA3C0C43401FBF40075F
:102DF0000CF1605113F0FE4F70471CF0006F03D1CF
:102E000000200CF0004170470CF0004343EA507082
:102E100010B540EACC0000F00EF800BF00000092B0
:102E20004FEA0001FFF7D6BF4FF000414FF000001E
:102E3000A1F5002170470EF1020E2EF0030E5EF890
:102E4000044B244204D44FEA4102B2F17F4F11D81F
:102E50004FEA4003B3F17F4F0CD80ED14FEAD07C3C
:102E6000B2F17F4F0CEB4C0C0CF1020C08BF4CEB99
:102E7000D17C04E04FF0080C01E04FEAD17C0CEB70
:102E80004C0324FA03F404F00704B4F1040C06D252
:102E90000EEB840CBDE810404CF0010C6047DFE8FD
:102EA0000CF0070802024FF00040A0F5800010BDB2
:102EB0000846420018BFD2F1807288BF00F000407F
:102EC00010BD4FF04070E1EE100A7047FF2141EA5B
:102ED000D050C005704700061016000610160000FE
:102EE00000000000000001020304060708090000BA
:102EF0000000010203040000182F00080000002059
:102F00002C000000C4010008442F00082C00002001
:102F10000C080000E00100080000000000000000B4
:102F200000000000000000000000000000000000A1
:102F30000000000001000000100000000000000080
:042F40000024F40075
:040000050800018965
:00000001FF
